:100000000C9434000C9446000C9446000C9446006A
:100010000C9446000C9446000C9446000C94460048
:100020000C9446000C946F020C9446000C9446000D
:100030000C9446000C9448000C9446000C94460026
:100040000C9446000C9446000C9446000C94460018
:100050000C9446000C9446000C9446000C94460008
:100060000C9446000C94460011241FBECFEFD8E03C
:10007000DEBFCDBF11E0A0E0B1E001C01D92A9300C
:10008000B107E1F70E9495020C94A6020C940000BF
:100090001F920F920FB60F9211248F939F9387EFA9
:1000A00092EC909385008093840081E0809303011B
:1000B00090910501911103C08093050102C0109237
:1000C0000501809100018823F9F0809106018823C1
:1000D00021F081508093060117C08CE380930601C4
:1000E00090910701992321F09150909307010CC042
:1000F0008093070180910801882321F0815080932B
:10010000080102C0109200019F918F910F900FBEC5
:100110000F901F901895089518B88BB180788BB9FF
:1001200008959BB1947A9BB92B98633081F028F4A1
:10013000613049F0623091F408C0653061F048F0F8
:10014000663061F40AC0589A09C0599A07C05C9A8F
:1001500005C05E9A03C05B9A01C02B9A9FE398B9D1
:100160009BB194629BB9863081F160F48230F9F0E2
:1001700028F48823A9F08130E9F515C08430F9F01E
:1001800008F51AC0893059F128F4873009F1883010
:1001900089F522C08B3051F128F18C3059F528C0F7
:1001A00088B1807D06C088B18B7D88B9089588B1FB
:1001B000867C88B95A98089588B1837CFACF88B133
:1001C000897C08C088B1817EF4CF88B1807EF1CF70
:1001D00088B1837D88B907C088B1807CEACF88B1B7
:1001E000817CE7CF42988BB18BB908955D980895D3
:1001F0004298089518B80895880F991F21E005C006
:1002000025BB16BCA89BFECF9A95813031E09307A1
:10021000B8F791E095BB819586BDA89BFECF089568
:10022000CF93DF93EC0111C08AEF90E00E94FC00B5
:100230008AEF90E00E94FC008AEF90E00E94FC00B0
:100240008AEF90E00E94FC002197209769F7DF91E8
:10025000CF9108950F931F93CF93DF938C01C0E04C
:10026000D0E00CC02A9A8CE291E00E94FC00299A0E
:100270002A988CE291E00E94FC0021962998C017F0
:10028000D10784F32A9882E390E00E941001C0E035
:10029000D0E00CC02A9A8CE291E00E94FC00299ADE
:1002A0002A988CE291E00E94FC0021962998C017C0
:1002B000D10784F32A98DF91CF911F910F91089570
:1002C000CF938EEC84B98FEF87B98FE78AB981E33A
:1002D00085B984EA8BB98FE388B982E085BD85E072
:1002E00080938100C1E0C0936F0087EF92EC909300
:1002F00085008093840087E08093B100C0937000F4
:1003000088E5809308018093070180930601789423
:1003100088EC90E00E942A0110920801C093070126
:10032000109206018BE08093010187E38093020124
:1003300010920401C0930001CF91089580910801AB
:1003400081110CC080910701811108C080910601C4
:10035000811104C084EF91E00C942A010895FF926A
:100360000F931F93CF93DF938C01C0E0D0E03AE06E
:10037000F32E47C0809101018A3050F06F2D0E940A
:100380009A0261E00E94910082E390E00E94FC00EA
:10039000809101016F2D0E949A02892F62E00E94D4
:1003A000910082E390E00E94FC00809102016F2D99
:1003B0000E949A0263E00E94910082E390E00E9412
:1003C000FC00809102016F2D0E949A02892F64E047
:1003D0000E94910082E390E00E94FC008091050160
:1003E000813041F465E08AE00E94910082E390E070
:1003F0000E94FC000E948C0081E090E00E941001AD
:100400002196C017D10709F0B5CFDF91CF911F9189
:100410000F91FF900895FF920F931F93CF93DF9357
:100420008C01C0E0D0E04AE0F42E4FC0809107017B
:100430006F2D0E949A0261E00E94910082E390E099
:100440000E94FC00809107016F2D0E949A02892F63
:1004500062E00E94910082E390E00E94FC008091A3
:1004600006016F2D0E949A0263E00E94910082E3D0
:1004700090E00E94FC00809106016F2D0E949A027C
:10048000892F64E00E94910082E390E00E94FC00CA
:1004900080910501813041F465E08AE00E9491007D
:1004A00082E390E00E94FC00189B08C064E08BE0AF
:1004B0000E94910082E390E00E94FC000E948C0068
:1004C00082E390E00E94FC002196C017D10709F05A
:1004D000ADCFDF91CF911F910F91FF9008951F92A3
:1004E0000F920FB60F9211242F933F934F935F9368
:1004F0006F937F938F939F93AF93BF93EF93FF93EC
:100500008AE090E00E940B02FF91EF91BF91AF91C2
:100510009F918F917F916F915F914F913F912F911B
:100520000F900FBE0F901F9018950E9460010E94BF
:100530009E01FDCF991B79E004C0991F961708F022
:10054000961B881F7A95C9F780950895F894FFCF78
:00000001FF
