:100000000C9434000C9446000C9446000C9446006A
:100010000C9446000C9446000C9446000C94460048
:100020000C9446000C9446000C9446000C94460038
:100030000C9446000C9446000C9446000C94460028
:100040000C9446000C9446000C9446000C94460018
:100050000C9446000C9446000C9446000C94460008
:100060000C9446000C94460011241FBECFEFD8E03C
:10007000DEBFCDBF11E0A0E0B1E001C01D92A23112
:10008000B107E1F70E94A2040C94B5040C9400009F
:100090001F920F920FB60F9211248F939F9387EFA9
:1000A00092EC909385008093840081E0809304011A
:1000B00090910C01911103C080930C0102C0109229
:1000C0000C0180910D018F5F80930D018C3309F538
:1000D00010920D01809110018F5F809310018C337D
:1000E000C1F410921001809111018F5F8093110172
:1000F0008C3051F480910E01813011F482E001C006
:1001000081E080930E0105C08D3019F481E0809369
:1001100011019F918F910F900FBE0F901F90189516
:10012000189B40C080910B0181113EC0809111014C
:1001300090910201891319C020911001909103013F
:10014000291313C020910D019091080129130DC0AE
:1001500020910E0190910701291307C090910A0187
:10016000911103C091E090930B01909106018913C6
:100170001BC09091100180910501981315C09091BA
:100180000D0180910F0198130FC090910E01809185
:100190000901981309C080910A01813029F48093E4
:1001A0000B01089510920B01089518B88BB1807857
:1001B0008BB908959BB1947A9BB92B98633081F0E9
:1001C00028F4613049F0623091F408C0653061F084
:1001D00048F0663061F40AC0589A09C0599A07C0BD
:1001E0005C9A05C05E9A03C05B9A01C02B9A9FE39C
:1001F00098B99BB194629BB9863081F160F48230EA
:10020000F9F028F48823A9F08130E9F515C084308D
:10021000F9F008F51AC0893059F128F4873009F14E
:10022000883089F522C08B3051F128F18C3059F596
:1002300028C088B1807D06C088B18B7D88B90895BB
:1002400088B1867C88B95A98089588B1837CFACFA2
:1002500088B1897C08C088B1817EF4CF88B1807E66
:10026000F1CF88B1837D88B907C088B1807CEACF9F
:1002700088B1817CE7CF42988BB18BB908955D98A6
:1002800008954298089518B80895880F991F21E09D
:1002900005C025BB16BCA89BFECF9A95813031E0E6
:1002A0009307B8F791E095BB819586BDA89BFECFDB
:1002B0000895CF93DF93EC0111C08AEF90E00E9484
:1002C00045018AEF90E00E9445018AEF90E00E948C
:1002D00045018AEF90E00E9445012197209769F738
:1002E000DF91CF9108950F931F93CF93DF938C01EC
:1002F000C0E0D0E00CC02A9A8CE291E00E94450157
:10030000299A2A988CE291E00E9445012196299829
:10031000C017D10784F32A9882E390E00E94590124
:10032000C0E0D0E00CC02A9A8CE291E00E94450126
:10033000299A2A988CE291E00E94450121962998F9
:10034000C017D10784F32A98DF91CF911F910F91A5
:100350000895CF93DF938EEC84B98FEF87B98FE741
:100360008AB981E385B984EA8BB98FE388B9D2E091
:10037000D5BD85E080938100C1E0C0936F0087EF19
:1003800092EC909385008093840087E08093B10085
:10039000C093700088E580931101809310018093D1
:1003A0000D0110920B01789488EC90E00E9473018B
:1003B0008CE0809311011092100110920D01C093F6
:1003C0000E019BE09093020197E39093030110923A
:1003D0000801D09307018093060110920501109245
:1003E0000F01C093090110920A01DF91CF91089586
:1003F000FF920F931F93CF93DF938C01C0E0D0E067
:100400003AE0F32E5EC0809100018F5F809300017F
:10041000809102018A3050F06F2D0E94A90461E0A2
:100420000E94DA0082E390E00E944501809102017F
:100430006F2D0E94A904892F62E00E94DA0082E3F6
:1004400090E00E944501809103016F2D0E94A90454
:1004500063E00E94DA0082E390E00E94450180910F
:1004600003016F2D0E94A904892F64E00E94DA0025
:1004700082E390E00E94450180910C01813041F4BB
:1004800065E08AE00E94DA0082E390E00E94450184
:1004900080910701813071F4809100018A3050F021
:1004A0001092000166E08CE00E94DA0082E390E0A6
:1004B0000E9445010E94D50081E090E00E94590110
:1004C0002196C017D10709F09ECFDF91CF911F91E0
:1004D0000F91FF900895EF92FF920F931F93CF9388
:1004E000DF938C01C0E0D0E04AE0F42E58E5E52E21
:1004F00081C0809101018F5F809301018091110182
:100500008A3050F06F2D0E94A90461E00E94DA0049
:1005100082E390E00E944501809111016F2D0E94BD
:10052000A904892F62E00E94DA0082E390E00E9431
:100530004501809110016F2D0E94A90463E00E9483
:10054000DA0082E390E00E944501809110016F2D56
:100550000E94A904892F64E00E94DA0082E390E0FF
:100560000E94450180910C01813041F465E08AE0F0
:100570000E94DA0082E390E00E944501189B19C0B6
:1005800064E08BE00E94DA0082E390E00E94450183
:1005900080910B018130A9F480910401813089F4AC
:1005A0000E94D50084EF91E00E9473011092040133
:1005B00008C010920A01E0920601E0920501E09263
:1005C0000F0180910E01813071F48091010185301D
:1005D00050F01092010166E08CE00E94DA0082E3A4
:1005E00090E00E9445010E94D50082E390E00E94C5
:1005F00045012196C017D10709F07BCFDF91CF913C
:100600001F910F91FF90EF900895DF92EF92FF926C
:100610000F931F93CF93DF934F992CC080910B01C1
:10062000813041F510920B0180930A0110920F0165
:1006300030911001432F475F4093050190911101C4
:100640009093060120910E01209309014C3390F004
:100650003353309305019F5F909306019C3031F432
:10066000213009F482E08093090104C09D3011F427
:100670008093060183B1807309F094C088EE93E003
:100680000E94590183B1807329F08CC088EE93E0F9
:100690000E946B0283B18073C9F310E0D1E0C0E027
:1006A00001E0F2E0FF2EABE3EA2EBCE0DB2E4F9937
:1006B00010C003E08AEF90E00E946B020E94D50018
:1006C0008AEF90E00E9459010150A1F74F9BFECFA5
:1006D0006CC01D9933C0153039F4CF5FC63040F07F
:1006E000DF5FDF3118F403C0D1E001C0DEE1C0E01C
:1006F000809110018D0F809310018C33D0F08C53BA
:1007000080931001809111018F5F8D3019F08093DB
:10071000110102C000931101809111018C3049F444
:1007200080910E01813019F4F0920E0102C0009305
:100730000E0184E690E00E94590115E01C99B7CFA4
:10074000143039F4CF5FC63040F0DF5FDF3118F48A
:1007500003C0D1E001C0DEE1C0E0809110018D1B3B
:10076000809310018D33C0F0E0921001809111014F
:10077000815019F08093110102C0D0921101809133
:1007800011018B3049F480910E01813019F4F092FF
:100790000E0102C000930E0184E690E00E94590110
:1007A00014E085CF10E0D1E0C0E04F999DC01092D9
:1007B000700088EE93E00E94F8014F9992C0109269
:1007C00070000AC00E94D5008AEF90E00E94590193
:1007D0008AEF90E00E94F8014F9BF4CF02C014E032
:1007E00007C001E062E0F62E7BE3E72EECE0DE2EB0
:1007F00084E690E00E94F8014F9910C0C4E08AEFAF
:1008000090E00E94F8010E94D5008AEF90E00E94DB
:100810005901C150A1F74F9BFECF63C01D9930C055
:10082000153039F4CF5FC63040F0DF5FDF3118F4A8
:1008300003C0D1E001C0DEE1C0E0809103018D0F73
:100840008C3318F4809303011AC08C5380930301F6
:10085000809102018F5F8D3019F08093020102C0F8
:1008600000930201809102018C3049F480910701CC
:10087000813019F4F092070102C00093070115E0DE
:100880001C99B6CF143039F4CF5FC63040F0DF5F2B
:10089000DF3118F403C0D1E001C0DEE1C0E0809197
:1008A00003018D1B809303018D3308F498CFE092F0
:1008B000030180910201815019F08093020102C06E
:1008C000D0920201809102018B3009F088CF809193
:1008D0000701813019F4F092070181CF00930701DD
:1008E0007ECF81E080937000DF91CF911F910F91B7
:1008F000FF90EF90DF9008951F920F920FB60F9226
:1009000011242F933F934F935F936F937F938F9314
:100910009F93AF93BF93EF93FF938AE090E00E9481
:100920006B02FF91EF91BF91AF919F918F917F915A
:100930006F915F914F913F912F910F900FBE0F904C
:100940001F9018950E94A9010E9405030E94900023
:10095000FBCF991B79E004C0991F961708F0961BEE
:0E096000881F7A95C9F780950895F894FFCF07
:00000001FF
