:100000000C9434000C9446000C9446000C9446006A
:100010000C9446000C9446000C9446000C94460048
:100020000C9446000C946E020C9446000C9446000E
:100030000C9446000C9454010C9446000C94460019
:100040000C9446000C9446000C9446000C94460018
:100050000C9446000C9446000C9446000C94460008
:100060000C9446000C94460011241FBECFEFD8E03C
:10007000DEBFCDBF11E0A0E0B1E001C01D92A9300C
:10008000B107E1F70E94A3020C94B4020C940000A3
:100090002B988FE388B98BB1847A8BB98BB184624A
:1000A0008BB90895CF93DF9300D0CDB7DEB76A83C5
:1000B00089830E9448006A818981633081F028F435
:1000C000613049F0623091F408C0653061F048F069
:1000D000663061F40AC0589A09C0599A07C05C9A00
:1000E00005C05E9A03C05B9A01C02B9A863081F1ED
:1000F00060F48230F9F028F48823A9F08130E9F522
:1001000015C08430F9F008F51AC0893059F128F487
:10011000873009F1883089F522C08B3051F128F100
:100120008C3059F528C088B1807D06C088B18B7DA0
:1001300088B924C088B1867C88B95A981FC088B114
:10014000837CFACF88B1897C08C088B1817EF4CFE6
:1001500088B1807EF1CF88B1837D88B907C088B12E
:10016000807CEACF88B1817CE7CF42988BB18BB994
:1001700005C05D9803C0419801C018B80F900F905A
:10018000DF91CF910895880F991F21E005C025BB0D
:1001900016BCA89BFECF9A95813031E09307B8F743
:1001A00091E095BB819586BDA89BFECF0895CF9326
:1001B000DF93EC0111C08AEF90E00E94C3008AEF48
:1001C00090E00E94C3008AEF90E00E94C3008AEF93
:1001D00090E00E94C3002197209769F7DF91CF91AB
:1001E00008950F931F93CF93DF938C01C0E0D0E06D
:1001F0000CC02A9A8CE291E00E94C300299A2A98A6
:100200008CE291E00E94C30021962998C017D10783
:1002100084F32A98DF91CF911F910F910895CF9386
:10022000DF93EC010E94F10082E390E00E94D7008E
:10023000CE01DF91CF910C94F100CF938EEC84B975
:100240008FEF87B98FE78AB981E385B984EA8BB9E3
:100250008FE388B982E085BD85E080938100C1E0AD
:10026000C0936F0087EF92EC909385008093840099
:1002700087E08093B100C0937000789488EC90E0A0
:100280000E940F0110920401C09305011092060113
:1002900010920101C093020110920301109200011B
:1002A000C0930801CF9108951F920F920FB60F923D
:1002B00011242F933F934F935F936F937F938F936B
:1002C0009F93AF93BF93EF93FF9387EF92EC90933D
:1002D0008500809384008091070191E089278093B5
:1002E000070180910001882399F1809106018823FC
:1002F00021F08150809306012BC08BE3809306018F
:1003000090910501992321F091509093050120C00F
:100310008093050180910401882321F0815080930E
:10032000040116C010920001809101019091020118
:10033000A09103018093040190930501A09306010D
:1003400084EF91E00E940F0184EF91E00E940F0181
:10035000FF91EF91BF91AF919F918F917F916F919D
:100360005F914F913F912F910F900FBE0F901F9073
:100370001895189912C04F9910C08091000191E012
:10038000892780930001882321F082E390E00E9476
:10039000F1008CE291E00E94D7008AE090E00C949A
:1003A000D7009F92AF92BF92CF92DF92EF92FF92CF
:1003B0000F931F93CF93DF938C01D42E362F2AE017
:1003C000842F622F0E94A802C82EB92E852F0E946A
:1003D000A802F82EE92E832F0E94A802A82E992E9B
:1003E000C0E0D0E06BC020910801211126C089E057
:1003F0008D1540F461E08C2D0E94520082E390E064
:100400000E94C30062E08B2D0E94520082E390E0C4
:100410000E94C30063E08F2D0E94520082E390E0AF
:100420000E94C30064E08E2D0E94520082E390E09F
:100430000E94C30064E08BE01CC0213001F561E044
:100440008F2D0E94520082E390E00E94C30062E080
:100450008E2D0E94520082E390E00E94C30063E070
:100460008A2D0E94520082E390E00E94C30064E063
:10047000892D0E94520082E390E00E94C300809187
:100480000701882341F065E08AE00E94520082E380
:1004900090E00E94C30080910001882341F066E053
:1004A0008CE00E94520082E390E00E94C3000E9410
:1004B000480082E390E00E94C3002196C017D10754
:1004C00009F091CFDF91CF911F910F91FF90EF90A5
:1004D000DF90CF90BF90AF909F9008951F920F92A2
:1004E0000FB60F9211242F933F934F935F936F9307
:1004F0007F938F939F93AF93BF93EF93FF93189B3B
:1005000007C040910101509102016091030106C0B2
:100510004091040150910501609106018AE090E04C
:100520000E94D101FF91EF91BF91AF919F918F9167
:100530007F916F915F914F913F912F910F900FBEDF
:100540000F901F9018950E941D010E94B901FDCFC8
:10055000991B79E004C0991F961708F0961B881F15
:0C0560007A95C9F780950895F894FFCFB4
:00000001FF
