:100000000C9434000C9446000C9446000C9446006A
:100010000C9446000C9446000C9446000C94460048
:100020000C9446000C940F030C9446000C9446006C
:100030000C9446000C9496010C9446000C944600D7
:100040000C9446000C9446000C9446000C94460018
:100050000C9446000C9446000C9446000C94460008
:100060000C9446000C94460011241FBECFEFD8E03C
:10007000DEBFCDBF11E0A0E0B1E001C01D92AB300A
:10008000B107E1F70E9444030C9455030C9400005F
:10009000FC01662311F08CE301C081E0849F402DB8
:1000A00011249281941778F48181811107C0808195
:1000B000882361F0815080838CE38183818181502A
:1000C0008183945C92838281841B82830895FC01E6
:1000D000662311F09CE301C091E08281949F800D22
:1000E000112482838C3388F08C5382838181982FF2
:1000F0009F5F91839C3348F08B53818380818F5F16
:1001000080838C3310F08BE3808308952B988FE3EA
:1001100088B98BB1847A8BB98BB184628BB908951D
:10012000CF93DF9300D0CDB7DEB76A8389830E9477
:1001300086006A818981633081F028F4613049F05A
:10014000623091F408C0653061F048F0663061F4C7
:100150000AC0589A09C0599A07C05C9A05C05E9AAD
:1001600003C05B9A01C02B9A863081F160F4823023
:10017000F9F028F48823A9F08130E9F515C084301E
:10018000F9F008F51AC0893059F128F4873009F1DF
:10019000883089F522C08B3051F128F18C3059F527
:1001A00028C088B1807D06C088B18B7D88B924C005
:1001B00088B1867C88B95A981FC088B1837CFACFF1
:1001C00088B1897C08C088B1817EF4CF88B1807EF7
:1001D000F1CF88B1837D88B907C088B1807CEACF30
:1001E00088B1817CE7CF42988BB18BB905C05D980F
:1001F00003C0419801C018B80F900F90DF91CF91C4
:100200000895880F991F21E005C025BB16BCA89B47
:10021000FECF9A95813031E09307B8F791E095BB16
:10022000819586BDA89BFECF0895CF93DF93EC0107
:1002300011C08AEF90E00E9401018AEF90E00E94D5
:1002400001018AEF90E00E9401018AEF90E00E9494
:1002500001012197209769F7DF91CF9108950F93BE
:100260001F93CF93DF938C01C0E0D0E00CC02A9A9B
:100270008CE291E00E940101299A2A988CE291E097
:100280000E94010121962998C017D10784F32A986A
:10029000DF91CF911F910F910895CF93DF93EC01E0
:1002A0000E942F0182E390E00E941501CE01DF91B0
:1002B000CF910C942F01CF938EEC84B98FEF87B937
:1002C0008FE78AB981E385B984EA8BB98FE388B96E
:1002D00082E085BD85E080938100C1E0C0936F001E
:1002E00087EF92EC909385008093840087E0809361
:1002F000B100C0937000789488EC90E00E944D01AA
:1003000010920501C093060110920701109201019D
:10031000C09302011092030110920001C0930A01E0
:10032000C093080110920401CF9108951F920F927B
:100330000FB60F9211242F933F934F935F936F93B8
:100340007F938F939F93AF93BF93EF93FF9387EF29
:1003500092EC90938500809384008091090191E054
:1003600089278093090180910001882341F141E0B0
:1003700060E085E091E00E944800809105018111D4
:100380001EC08091060181111AC080910701811160
:1003900016C0109200018091010190910201A0917C
:1003A00003018093050190930601A093070184EF58
:1003B00091E00E944D0184EF91E00E944D01FF9178
:1003C000EF91BF91AF919F918F917F916F915F91CD
:1003D0004F913F912F910F900FBE0F901F90189546
:1003E000189B4AC04F990BC087E08093040181E0BD
:1003F00090910A01911180E080930A015FC01D99DC
:100400001AC080910401853021F4809108018F5F2A
:1004100001C081E08093080185E08093040161E0E0
:1004200080910A01811160E04091080181E091E032
:100430000E9467001BC01C991CC08091040184307D
:1004400021F4809108018F5F01C081E08093080151
:1004500084E08093040161E080910A01811160E0F1
:100460004091080181E091E00E94480084E690E01C
:1004700027C01092040126C04F9910C0809100013E
:1004800091E0892780930001882321F082E390E0A6
:100490000E942F018CE291E00E9415011D9912C06B
:1004A000109200018091010190910201A09103013D
:1004B0008093050190930601A09307018CE291E0DF
:1004C0000E9415018AE090E00C9415019F92AF9272
:1004D000BF92CF92DF92EF92FF920F931F93CF9331
:1004E000DF938C01D42E362F2AE0842F622F0E94B6
:1004F0004903C82EB92E852F0E944903F82EE92EF4
:10050000832F0E944903A82E992EC0E0D0E077C027
:1005100020910A01211126C089E08D1540F461E087
:100520008C2D0E94900082E390E00E94010162E025
:100530008B2D0E94900082E390E00E94010163E015
:100540008F2D0E94900082E390E00E94010164E000
:100550008E2D0E94900082E390E00E94010164E0F1
:100560008BE01CC0213001F561E08F2D0E949000CE
:1005700082E390E00E94010162E08E2D0E949000D3
:1005800082E390E00E94010163E08A2D0E949000C6
:1005900082E390E00E94010164E0892D0E949000B6
:1005A00082E390E00E94010180910901882341F0DB
:1005B00065E08AE00E94900082E390E00E940101E1
:1005C00080910001882341F066E08CE00E94900059
:1005D00082E390E00E94010180910A01811108C02C
:1005E00066E08BE00E94900082E390E00E940101AF
:1005F0000E94860082E390E00E9401012196C017CC
:10060000D10709F085CFDF91CF911F910F91FF9016
:10061000EF90DF90CF90BF90AF909F9008951F9282
:100620000F920FB60F9211242F933F934F935F9326
:100630006F937F938F939F93AF93BF93EF93FF93AA
:10064000189B07C040910101509102016091030184
:1006500006C040910501509106016091070185E0B7
:1006600090E00E946602FF91EF91BF91AF919F9140
:100670008F917F916F915F914F913F912F910F904B
:100680000FBE0F901F9018950E945B010E94F00111
:10069000FDCF991B79E004C0991F961708F0961BAF
:0E06A000881F7A95C9F780950895F894FFCFCA
:00000001FF
