:100000000C9434000C9446000C9446000C9446006A
:100010000C9446000C9446000C9446000C94460048
:100020000C9446000C94E5020C9446000C94460097
:100030000C9446000C948D010C9446000C944600E0
:100040000C9446000C9446000C9446000C94460018
:100050000C9446000C9446000C9446000C94460008
:100060000C9446000C94460011241FBECFEFD8E03C
:10007000DEBFCDBF11E0A0E0B1E001C01D92A9300C
:10008000B107E1F70E941A030C942B030C940000B3
:10009000FC01662311F09CE301C091E02281291745
:1000A00078F48181811107C08081882361F08150BB
:1000B00080838CE38183818181508183245C2283CE
:1000C0008281891B82830895FC01662311F09CE3E1
:1000D00001C091E08281890F82838C3388F08C5338
:1000E00082838181982F9F5F91839C3348F08B534B
:1000F000818380818F5F80838C3310F08BE38083DA
:1001000008952B988FE388B98BB1847A8BB98BB122
:1001100084628BB90895CF93DF9300D0CDB7DEB75B
:100120006A8389830E9481006A818981633081F0BA
:1001300028F4613049F0623091F408C0653061F014
:1001400048F0663061F40AC0589A09C0599A07C04D
:100150005C9A05C05E9A03C05B9A01C02B9A8630F8
:1001600081F160F48230F9F028F48823A9F081301D
:10017000E9F515C08430F9F008F51AC0893059F155
:1001800028F4873009F1883089F522C08B3051F18D
:1001900028F18C3059F528C088B1807D06C088B11F
:1001A0008B7D88B924C088B1867C88B95A981FC0D5
:1001B00088B1837CFACF88B1897C08C088B1817E00
:1001C000F4CF88B1807EF1CF88B1837D88B907C034
:1001D00088B1807CEACF88B1817CE7CF42988BB12F
:1001E0008BB905C05D9803C0419801C018B80F9045
:1001F0000F90DF91CF910895880F991F21E005C0DE
:1002000025BB16BCA89BFECF9A95813031E09307A1
:10021000B8F791E095BB819586BDA89BFECF089568
:10022000CF93DF93EC0111C08AEF90E00E94FC00B5
:100230008AEF90E00E94FC008AEF90E00E94FC00B0
:100240008AEF90E00E94FC002197209769F7DF91E8
:10025000CF9108950F931F93CF93DF938C01C0E04C
:10026000D0E00CC02A9A8CE291E00E94FC00299A0E
:100270002A988CE291E00E94FC0021962998C017F0
:10028000D10784F32A98DF91CF911F910F910895A0
:10029000CF93DF93EC010E942A0182E390E00E9459
:1002A0001001CE01DF91CF910C942A01CF938EECF7
:1002B00084B98FEF87B98FE78AB981E385B984EA7A
:1002C0008BB98FE388B982E085BD85E0809381009A
:1002D000C1E0C0936F0087EF92EC9093850080930C
:1002E000840087E08093B100C0937000789488EC1C
:1002F00090E00E94480110920401C0930501109201
:10030000060110920101C0930201109203011092A4
:100310000001C0930801CF9108951F920F920FB66C
:100320000F9211242F933F934F935F936F937F937B
:100330008F939F93AF93BF93EF93FF9387EF92ECCD
:1003400090938500809384008091070191E0892734
:100350008093070180910001882339F160E084E0F7
:1003600091E00E9448008091040181111EC080919B
:10037000050181111AC080910601811116C01092E9
:1003800000018091010190910201A09103018093ED
:10039000040190930501A093060184EF91E00E946F
:1003A000480184EF91E00E944801FF91EF91BF91D5
:1003B000AF919F918F917F916F915F914F913F91FD
:1003C0002F910F900FBE0F901F901895189B2AC069
:1003D0004F990BC081E090910801911180E08093CA
:1003E00008018CE291E00E9410011D990DC061E0AE
:1003F00080910801811160E081E091E00E94640039
:1004000084E690E00E9410011C9932C061E0809166
:100410000801811160E081E091E00E94480084E6DB
:1004200090E024C04F9910C08091000191E089278D
:1004300080930001882321F082E390E00E942A014A
:100440008CE291E00E9410011D9912C010920001EF
:100450008091010190910201A09103018093040118
:1004600090930501A09306018CE291E00E94100197
:100470008AE090E00C9410019F92AF92BF92CF92CD
:10048000DF92EF92FF920F931F93CF93DF938C0134
:10049000D42E362F2AE0842F622F0E941F03C82EED
:1004A000B92E852F0E941F03F82EE92E832F0E945C
:1004B0001F03A82E992EC0E0D0E077C0209108013C
:1004C000211126C089E08D1540F461E08C2D0E9439
:1004D0008B0082E390E00E94FC0062E08B2D0E9482
:1004E0008B0082E390E00E94FC0063E08F2D0E946D
:1004F0008B0082E390E00E94FC0064E08E2D0E945D
:100500008B0082E390E00E94FC0064E08BE01CC062
:10051000213001F561E08F2D0E948B0082E390E095
:100520000E94FC0062E08E2D0E948B0082E390E02E
:100530000E94FC0063E08A2D0E948B0082E390E021
:100540000E94FC0064E0892D0E948B0082E390E011
:100550000E94FC0080910701882341F065E08AE059
:100560000E948B0082E390E00E94FC0080910001D9
:10057000882341F066E08CE00E948B0082E390E0EB
:100580000E94FC0080910801811108C066E08BE0A8
:100590000E948B0082E390E00E94FC000E94810098
:1005A00082E390E00E94FC002196C017D10709F079
:1005B00085CFDF91CF911F910F91FF90EF90DF904A
:1005C000CF90BF90AF909F9008951F920F920FB65B
:1005D0000F9211242F933F934F935F936F937F93C9
:1005E0008F939F93AF93BF93EF93FF93189B07C095
:1005F00040910101509102016091030106C04091B8
:10060000040150910501609106018AE090E00E948A
:100610003C02FF91EF91BF91AF919F918F917F919C
:100620006F915F914F913F912F910F900FBE0F905F
:100630001F9018950E9456010E94E601FDCF991B5C
:1006400079E004C0991F961708F0961B881F7A95C9
:0A065000C9F780950895F894FFCFD4
:00000001FF
